{
  "abi": [
    {
      "inputs": [
        {
          "internalType": "bytes",
          "name": "path",
          "type": "bytes"
        },
        {
          "internalType": "address",
          "name": "tokenIn",
          "type": "address"
        },
        {
          "internalType": "uint256",
          "name": "amountIn",
          "type": "uint256"
        }
      ],
      "name": "swapExactInputMultiHop",
      "outputs": [
        {
          "internalType": "uint256",
          "name": "amountOut",
          "type": "uint256"
        }
      ],
      "stateMutability": "nonpayable",
      "type": "function"
    },
    {
      "inputs": [
        {
          "internalType": "address",
          "name": "tokenIn",
          "type": "address"
        },
        {
          "internalType": "address",
          "name": "tokenOut",
          "type": "address"
        },
        {
          "internalType": "uint24",
          "name": "poolFee",
          "type": "uint24"
        },
        {
          "internalType": "uint256",
          "name": "amountIn",
          "type": "uint256"
        }
      ],
      "name": "swapExactInputSingleHop",
      "outputs": [
        {
          "internalType": "uint256",
          "name": "amountOut",
          "type": "uint256"
        }
      ],
      "stateMutability": "nonpayable",
      "type": "function"
    }
  ],
  "bytecode": {
    "object": "0x608060405234801561001057600080fd5b50610618806100206000396000f3fe608060405234801561001057600080fd5b50600436106100365760003560e01c8063938427511461003b578063b57084f714610060575b600080fd5b61004e610049366004610438565b610073565b60405190815260200160405180910390f35b61004e61006e36600461048d565b610286565b6040516323b872dd60e01b8152336004820152306024820152604481018290526000906001600160a01b038616906323b872dd906064016020604051808303816000875af11580156100c9573d6000803e3d6000fd5b505050506040513d601f19601f820116820180604052508101906100ed9190610516565b5060405163095ea7b360e01b815273e592427a0aece92de3edee1f18e0157c058615646004820152602481018390526001600160a01b0386169063095ea7b3906044016020604051808303816000875af115801561014f573d6000803e3d6000fd5b505050506040513d601f19601f820116820180604052508101906101739190610516565b5060408051610100810182526001600160a01b0387811682528681166020830190815262ffffff8781168486019081523360608601908152426080870190815260a087018a8152600060c0890181815260e08a01918252995163414bf38960e01b815289518916600482015296518816602488015293519094166044860152905185166064850152516084840152905160a4830152935160c482015292511660e48301529073e592427a0aece92de3edee1f18e0157c058615649063414bf38990610104015b6020604051808303816000875af1158015610258573d6000803e3d6000fd5b505050506040513d601f19601f8201168201806040525081019061027c919061053f565b9695505050505050565b6040516323b872dd60e01b8152336004820152306024820152604481018290526000906001600160a01b038416906323b872dd906064016020604051808303816000875af11580156102dc573d6000803e3d6000fd5b505050506040513d601f19601f820116820180604052508101906103009190610516565b5060405163095ea7b360e01b815273e592427a0aece92de3edee1f18e0157c058615646004820152602481018390526001600160a01b0384169063095ea7b3906044016020604051808303816000875af1158015610362573d6000803e3d6000fd5b505050506040513d601f19601f820116820180604052508101906103869190610516565b506040805160c06020601f8801819004028201810190925260a081018681526000928291908990899081908501838280828437600092018290525093855250503360208401525042604080840191909152606083018790526080909201525163c04b8d5960e01b815290915073e592427a0aece92de3edee1f18e0157c058615649063c04b8d5990610239908490600401610558565b80356001600160a01b038116811461043357600080fd5b919050565b6000806000806080858703121561044e57600080fd5b6104578561041c565b93506104656020860161041c565b9250604085013562ffffff8116811461047d57600080fd5b9396929550929360600135925050565b600080600080606085870312156104a357600080fd5b843567ffffffffffffffff808211156104bb57600080fd5b818701915087601f8301126104cf57600080fd5b8135818111156104de57600080fd5b8860208285010111156104f057600080fd5b602092830196509450610506918701905061041c565b9396929550929360400135925050565b60006020828403121561052857600080fd5b8151801515811461053857600080fd5b9392505050565b60006020828403121561055157600080fd5b5051919050565b60006020808352835160a08285015280518060c086015260005b8181101561058e5782810184015186820160e001528301610572565b50600060e08287010152918501516001600160a01b0381166040860152916040860151606086015260608601516080860152608086015160a086015260e0601f19601f83011686010193505050509291505056fea2646970667358221220520f9d5991ac22cceecc3b06ec9dbe3da218f25068c255e26a49ea6d3b66f87264736f6c63430008110033",
    "linkReferences": {}
  },
  "methodIdentifiers": {
    "swapExactInputMultiHop(bytes,address,uint256)": "b57084f7",
    "swapExactInputSingleHop(address,address,uint24,uint256)": "93842751"
  },
  "id": 17
}