{
  "abi": [
    {
      "inputs": [],
      "stateMutability": "nonpayable",
      "type": "constructor"
    },
    {
      "anonymous": false,
      "inputs": [
        {
          "indexed": true,
          "internalType": "address",
          "name": "owner",
          "type": "address"
        },
        {
          "indexed": true,
          "internalType": "address",
          "name": "approved",
          "type": "address"
        },
        {
          "indexed": true,
          "internalType": "uint256",
          "name": "tokenId",
          "type": "uint256"
        }
      ],
      "name": "Approval",
      "type": "event"
    },
    {
      "anonymous": false,
      "inputs": [
        {
          "indexed": true,
          "internalType": "address",
          "name": "owner",
          "type": "address"
        },
        {
          "indexed": true,
          "internalType": "address",
          "name": "operator",
          "type": "address"
        },
        {
          "indexed": false,
          "internalType": "bool",
          "name": "approved",
          "type": "bool"
        }
      ],
      "name": "ApprovalForAll",
      "type": "event"
    },
    {
      "anonymous": false,
      "inputs": [
        {
          "indexed": true,
          "internalType": "address",
          "name": "previousOwner",
          "type": "address"
        },
        {
          "indexed": true,
          "internalType": "address",
          "name": "newOwner",
          "type": "address"
        }
      ],
      "name": "OwnershipTransferred",
      "type": "event"
    },
    {
      "anonymous": false,
      "inputs": [
        {
          "indexed": true,
          "internalType": "address",
          "name": "from",
          "type": "address"
        },
        {
          "indexed": true,
          "internalType": "address",
          "name": "to",
          "type": "address"
        },
        {
          "indexed": true,
          "internalType": "uint256",
          "name": "tokenId",
          "type": "uint256"
        }
      ],
      "name": "Transfer",
      "type": "event"
    },
    {
      "inputs": [
        {
          "internalType": "address",
          "name": "to",
          "type": "address"
        },
        {
          "internalType": "uint256",
          "name": "tokenId",
          "type": "uint256"
        }
      ],
      "name": "approve",
      "outputs": [],
      "stateMutability": "nonpayable",
      "type": "function"
    },
    {
      "inputs": [
        {
          "internalType": "address",
          "name": "owner",
          "type": "address"
        }
      ],
      "name": "balanceOf",
      "outputs": [
        {
          "internalType": "uint256",
          "name": "",
          "type": "uint256"
        }
      ],
      "stateMutability": "view",
      "type": "function"
    },
    {
      "inputs": [],
      "name": "etherPrice",
      "outputs": [
        {
          "internalType": "uint256",
          "name": "",
          "type": "uint256"
        }
      ],
      "stateMutability": "view",
      "type": "function"
    },
    {
      "inputs": [
        {
          "internalType": "uint256",
          "name": "tokenId",
          "type": "uint256"
        }
      ],
      "name": "getApproved",
      "outputs": [
        {
          "internalType": "address",
          "name": "",
          "type": "address"
        }
      ],
      "stateMutability": "view",
      "type": "function"
    },
    {
      "inputs": [
        {
          "internalType": "address",
          "name": "owner",
          "type": "address"
        },
        {
          "internalType": "address",
          "name": "operator",
          "type": "address"
        }
      ],
      "name": "isApprovedForAll",
      "outputs": [
        {
          "internalType": "bool",
          "name": "",
          "type": "bool"
        }
      ],
      "stateMutability": "view",
      "type": "function"
    },
    {
      "inputs": [
        {
          "internalType": "address",
          "name": "_address",
          "type": "address"
        }
      ],
      "name": "mintWithEther",
      "outputs": [],
      "stateMutability": "payable",
      "type": "function"
    },
    {
      "inputs": [
        {
          "internalType": "address",
          "name": "_address",
          "type": "address"
        },
        {
          "internalType": "uint256",
          "name": "_shaneCoinAmount",
          "type": "uint256"
        }
      ],
      "name": "mintWithShaneCoin",
      "outputs": [],
      "stateMutability": "nonpayable",
      "type": "function"
    },
    {
      "inputs": [],
      "name": "name",
      "outputs": [
        {
          "internalType": "string",
          "name": "",
          "type": "string"
        }
      ],
      "stateMutability": "view",
      "type": "function"
    },
    {
      "inputs": [],
      "name": "owner",
      "outputs": [
        {
          "internalType": "address",
          "name": "",
          "type": "address"
        }
      ],
      "stateMutability": "view",
      "type": "function"
    },
    {
      "inputs": [
        {
          "internalType": "uint256",
          "name": "tokenId",
          "type": "uint256"
        }
      ],
      "name": "ownerOf",
      "outputs": [
        {
          "internalType": "address",
          "name": "",
          "type": "address"
        }
      ],
      "stateMutability": "view",
      "type": "function"
    },
    {
      "inputs": [],
      "name": "renounceOwnership",
      "outputs": [],
      "stateMutability": "nonpayable",
      "type": "function"
    },
    {
      "inputs": [
        {
          "internalType": "address",
          "name": "from",
          "type": "address"
        },
        {
          "internalType": "address",
          "name": "to",
          "type": "address"
        },
        {
          "internalType": "uint256",
          "name": "tokenId",
          "type": "uint256"
        }
      ],
      "name": "safeTransferFrom",
      "outputs": [],
      "stateMutability": "nonpayable",
      "type": "function"
    },
    {
      "inputs": [
        {
          "internalType": "address",
          "name": "from",
          "type": "address"
        },
        {
          "internalType": "address",
          "name": "to",
          "type": "address"
        },
        {
          "internalType": "uint256",
          "name": "tokenId",
          "type": "uint256"
        },
        {
          "internalType": "bytes",
          "name": "data",
          "type": "bytes"
        }
      ],
      "name": "safeTransferFrom",
      "outputs": [],
      "stateMutability": "nonpayable",
      "type": "function"
    },
    {
      "inputs": [
        {
          "internalType": "address",
          "name": "operator",
          "type": "address"
        },
        {
          "internalType": "bool",
          "name": "approved",
          "type": "bool"
        }
      ],
      "name": "setApprovalForAll",
      "outputs": [],
      "stateMutability": "nonpayable",
      "type": "function"
    },
    {
      "inputs": [
        {
          "internalType": "uint256",
          "name": "_etherPrice",
          "type": "uint256"
        }
      ],
      "name": "setEtherPrice",
      "outputs": [],
      "stateMutability": "nonpayable",
      "type": "function"
    },
    {
      "inputs": [
        {
          "internalType": "address",
          "name": "_shaneCoinAddress",
          "type": "address"
        }
      ],
      "name": "setShaneCoinAddress",
      "outputs": [],
      "stateMutability": "nonpayable",
      "type": "function"
    },
    {
      "inputs": [
        {
          "internalType": "uint256",
          "name": "_shaneCoinPrice",
          "type": "uint256"
        }
      ],
      "name": "setShaneCoinPrice",
      "outputs": [],
      "stateMutability": "nonpayable",
      "type": "function"
    },
    {
      "inputs": [],
      "name": "shaneCoinAmount",
      "outputs": [
        {
          "internalType": "uint256",
          "name": "",
          "type": "uint256"
        }
      ],
      "stateMutability": "view",
      "type": "function"
    },
    {
      "inputs": [
        {
          "internalType": "bytes4",
          "name": "interfaceId",
          "type": "bytes4"
        }
      ],
      "name": "supportsInterface",
      "outputs": [
        {
          "internalType": "bool",
          "name": "",
          "type": "bool"
        }
      ],
      "stateMutability": "view",
      "type": "function"
    },
    {
      "inputs": [],
      "name": "symbol",
      "outputs": [
        {
          "internalType": "string",
          "name": "",
          "type": "string"
        }
      ],
      "stateMutability": "view",
      "type": "function"
    },
    {
      "inputs": [
        {
          "internalType": "uint256",
          "name": "tokenId",
          "type": "uint256"
        }
      ],
      "name": "tokenURI",
      "outputs": [
        {
          "internalType": "string",
          "name": "",
          "type": "string"
        }
      ],
      "stateMutability": "view",
      "type": "function"
    },
    {
      "inputs": [],
      "name": "totalSupply",
      "outputs": [
        {
          "internalType": "uint256",
          "name": "",
          "type": "uint256"
        }
      ],
      "stateMutability": "view",
      "type": "function"
    },
    {
      "inputs": [
        {
          "internalType": "address",
          "name": "from",
          "type": "address"
        },
        {
          "internalType": "address",
          "name": "to",
          "type": "address"
        },
        {
          "internalType": "uint256",
          "name": "tokenId",
          "type": "uint256"
        }
      ],
      "name": "transferFrom",
      "outputs": [],
      "stateMutability": "nonpayable",
      "type": "function"
    },
    {
      "inputs": [
        {
          "internalType": "address",
          "name": "newOwner",
          "type": "address"
        }
      ],
      "name": "transferOwnership",
      "outputs": [],
      "stateMutability": "nonpayable",
      "type": "function"
    }
  ],
  "bytecode": {
    "object": "0x662386f26fc10000600c556101e06040526101276080818152906200200460a039600d906200002f9082620001ba565b503480156200003d57600080fd5b506040518060400160405280600881526020016714da185b9953919560c21b8152506040518060400160405280600481526020016353434e4f60e01b81525081600090816200008d9190620001ba565b5060016200009c8282620001ba565b505050620000b9620000b3620000bf60201b60201c565b620000c3565b62000286565b3390565b600780546001600160a01b038381166001600160a01b0319831681179093556040519116919082907f8be0079c531659141344cd1fd0a4f28419497f9722a3daafe3b4186f6b6457e090600090a35050565b634e487b7160e01b600052604160045260246000fd5b600181811c908216806200014057607f821691505b6020821081036200016157634e487b7160e01b600052602260045260246000fd5b50919050565b601f821115620001b557600081815260208120601f850160051c81016020861015620001905750805b601f850160051c820191505b81811015620001b1578281556001016200019c565b5050505b505050565b81516001600160401b03811115620001d657620001d662000115565b620001ee81620001e784546200012b565b8462000167565b602080601f8311600181146200022657600084156200020d5750858301515b600019600386901b1c1916600185901b178555620001b1565b600085815260208120601f198616915b82811015620002575788860151825594840194600190910190840162000236565b5085821015620002765787850151600019600388901b60f8161c191681555b5050505050600190811b01905550565b611d6e80620002966000396000f3fe60806040526004361061014b5760003560e01c8063715018a6116100b6578063b88d4fde1161006f578063b88d4fde1461038b578063c87b56dd146103ab578063de6681ff146103cb578063e985e9c5146103eb578063e9c155191461040b578063f2fde38b1461042b57600080fd5b8063715018a6146102fa5780638da5cb5b1461030f5780638f6ede1f1461032d57806395d89b41146103405780639e30795514610355578063a22cb4651461036b57600080fd5b80632718799111610108578063271879911461024457806342842e0e1461026457806362c2ed7f146102845780636352211e1461029a5780636ddba536146102ba57806370a08231146102da57600080fd5b806301ffc9a71461015057806306fdde0314610185578063081812fc146101a7578063095ea7b3146101df57806318160ddd1461020157806323b872dd14610224575b600080fd5b34801561015c57600080fd5b5061017061016b366004611718565b61044b565b60405190151581526020015b60405180910390f35b34801561019157600080fd5b5061019a61049d565b60405161017c9190611785565b3480156101b357600080fd5b506101c76101c2366004611798565b61052f565b6040516001600160a01b03909116815260200161017c565b3480156101eb57600080fd5b506101ff6101fa3660046117cd565b610556565b005b34801561020d57600080fd5b50610216610670565b60405190815260200161017c565b34801561023057600080fd5b506101ff61023f3660046117f7565b610680565b34801561025057600080fd5b506101ff61025f366004611798565b6106b1565b34801561027057600080fd5b506101ff61027f3660046117f7565b6106be565b34801561029057600080fd5b50610216600a5481565b3480156102a657600080fd5b506101c76102b5366004611798565b6106d9565b3480156102c657600080fd5b506101ff6102d53660046117cd565b610739565b3480156102e657600080fd5b506102166102f5366004611833565b61095b565b34801561030657600080fd5b506101ff6109e1565b34801561031b57600080fd5b506007546001600160a01b03166101c7565b6101ff61033b366004611833565b6109f5565b34801561034c57600080fd5b5061019a610a5b565b34801561036157600080fd5b50610216600c5481565b34801561037757600080fd5b506101ff61038636600461185c565b610a6a565b34801561039757600080fd5b506101ff6103a63660046118a9565b610a75565b3480156103b757600080fd5b5061019a6103c6366004611798565b610aad565b3480156103d757600080fd5b506101ff6103e6366004611833565b610ab8565b3480156103f757600080fd5b50610170610406366004611985565b610ae2565b34801561041757600080fd5b506101ff610426366004611798565b610b10565b34801561043757600080fd5b506101ff610446366004611833565b610b1d565b60006001600160e01b031982166380ac58cd60e01b148061047c57506001600160e01b03198216635b5e139f60e01b145b8061049757506301ffc9a760e01b6001600160e01b03198316145b92915050565b6060600080546104ac906119b8565b80601f01602080910402602001604051908101604052809291908181526020018280546104d8906119b8565b80156105255780601f106104fa57610100808354040283529160200191610525565b820191906000526020600020905b81548152906001019060200180831161050857829003601f168201915b5050505050905090565b600061053a82610b93565b506000908152600460205260409020546001600160a01b031690565b6000610561826106d9565b9050806001600160a01b0316836001600160a01b0316036105d35760405162461bcd60e51b815260206004820152602160248201527f4552433732313a20617070726f76616c20746f2063757272656e74206f776e656044820152603960f91b60648201526084015b60405180910390fd5b336001600160a01b03821614806105ef57506105ef8133610ae2565b6106615760405162461bcd60e51b815260206004820152603d60248201527f4552433732313a20617070726f76652063616c6c6572206973206e6f7420746f60448201527f6b656e206f776e6572206f7220617070726f76656420666f7220616c6c00000060648201526084016105ca565b61066b8383610bf2565b505050565b600061067b60095490565b905090565b61068a3382610c60565b6106a65760405162461bcd60e51b81526004016105ca906119f2565b61066b838383610cbf565b6106b9610e30565b600c55565b61066b83838360405180602001604052806000815250610a75565b6000818152600260205260408120546001600160a01b0316806104975760405162461bcd60e51b8152602060048201526018602482015277115490cdcc8c4e881a5b9d985b1a59081d1bdad95b88125160421b60448201526064016105ca565b600b5481101561078b5760405162461bcd60e51b815260206004820152601c60248201527f4469646e27742073656e6420656e6f756768205368616e65436f696e0000000060448201526064016105ca565b6008546040516370a0823160e01b815233600482015282916001600160a01b0316906370a0823190602401602060405180830381865afa1580156107d3573d6000803e3d6000fd5b505050506040513d601f19601f820116820180604052508101906107f79190611a3f565b10156108455760405162461bcd60e51b815260206004820152601b60248201527f446f6e2774206861766520656e6f756768205368616e65436f696e000000000060448201526064016105ca565b60085460405163095ea7b360e01b8152336004820152602481018390526001600160a01b039091169063095ea7b3906044016020604051808303816000875af1158015610896573d6000803e3d6000fd5b505050506040513d601f19601f820116820180604052508101906108ba9190611a58565b5080600a60008282546108cd9190611a8b565b90915550506008546040516323b872dd60e01b8152336004820152306024820152604481018390526001600160a01b03909116906323b872dd906064016020604051808303816000875af1158015610929573d6000803e3d6000fd5b505050506040513d601f19601f8201168201806040525081019061094d9190611a58565b5061095782610e8a565b5050565b60006001600160a01b0382166109c55760405162461bcd60e51b815260206004820152602960248201527f4552433732313a2061646472657373207a65726f206973206e6f7420612076616044820152683634b21037bbb732b960b91b60648201526084016105ca565b506001600160a01b031660009081526003602052604090205490565b6109e9610e30565b6109f36000610ec0565b565b6109fd610e30565b600c54341015610a4f5760405162461bcd60e51b815260206004820152601b60248201527f4e6f7420656e6f756768204554482073656e7420746f206d696e74000000000060448201526064016105ca565b610a5881610e8a565b50565b6060600180546104ac906119b8565b610957338383610f12565b610a7f3383610c60565b610a9b5760405162461bcd60e51b81526004016105ca906119f2565b610aa784848484610fe0565b50505050565b606061049782611013565b610ac0610e30565b600880546001600160a01b0319166001600160a01b0392909216919091179055565b6001600160a01b03918216600090815260056020908152604080832093909416825291909152205460ff1690565b610b18610e30565b600b55565b610b25610e30565b6001600160a01b038116610b8a5760405162461bcd60e51b815260206004820152602660248201527f4f776e61626c653a206e6577206f776e657220697320746865207a65726f206160448201526564647265737360d01b60648201526084016105ca565b610a5881610ec0565b6000818152600260205260409020546001600160a01b0316610a585760405162461bcd60e51b8152602060048201526018602482015277115490cdcc8c4e881a5b9d985b1a59081d1bdad95b88125160421b60448201526064016105ca565b600081815260046020526040902080546001600160a01b0319166001600160a01b0384169081179091558190610c27826106d9565b6001600160a01b03167f8c5be1e5ebec7d5bd14f71427d1e84f3dd0314c0f7b2291e5b200ac8c7c3b92560405160405180910390a45050565b600080610c6c836106d9565b9050806001600160a01b0316846001600160a01b03161480610c935750610c938185610ae2565b80610cb75750836001600160a01b0316610cac8461052f565b6001600160a01b0316145b949350505050565b826001600160a01b0316610cd2826106d9565b6001600160a01b031614610cf85760405162461bcd60e51b81526004016105ca90611a9e565b6001600160a01b038216610d5a5760405162461bcd60e51b8152602060048201526024808201527f4552433732313a207472616e7366657220746f20746865207a65726f206164646044820152637265737360e01b60648201526084016105ca565b610d67838383600161110e565b826001600160a01b0316610d7a826106d9565b6001600160a01b031614610da05760405162461bcd60e51b81526004016105ca90611a9e565b600081815260046020908152604080832080546001600160a01b03199081169091556001600160a01b0387811680865260038552838620805460001901905590871680865283862080546001019055868652600290945282852080549092168417909155905184937fddf252ad1be2c89b69c2b068fc378daa952ba7f163c4a11628f55a4df523b3ef91a4505050565b6007546001600160a01b031633146109f35760405162461bcd60e51b815260206004820181905260248201527f4f776e61626c653a2063616c6c6572206973206e6f7420746865206f776e657260448201526064016105ca565b6000610e9560095490565b9050610ea5600980546001019055565b610eaf8282611196565b61095781610ebb6111b0565b6111d0565b600780546001600160a01b038381166001600160a01b0319831681179093556040519116919082907f8be0079c531659141344cd1fd0a4f28419497f9722a3daafe3b4186f6b6457e090600090a35050565b816001600160a01b0316836001600160a01b031603610f735760405162461bcd60e51b815260206004820152601960248201527f4552433732313a20617070726f766520746f2063616c6c65720000000000000060448201526064016105ca565b6001600160a01b03838116600081815260056020908152604080832094871680845294825291829020805460ff191686151590811790915591519182527f17307eab39ab6107e8899845ad3d59bd9653f200f220920489ca2b5937696c31910160405180910390a3505050565b610feb848484610cbf565b610ff784848484611263565b610aa75760405162461bcd60e51b81526004016105ca90611ae3565b606061101e82610b93565b60008281526006602052604081208054611037906119b8565b80601f0160208091040260200160405190810160405280929190818152602001828054611063906119b8565b80156110b05780601f10611085576101008083540402835291602001916110b0565b820191906000526020600020905b81548152906001019060200180831161109357829003601f168201915b5050505050905060006110c16111b0565b905080516000036110d3575092915050565b8151156111055780826040516020016110ed929190611b35565b60405160208183030381529060405292505050919050565b610cb784611364565b6001811115610aa7576001600160a01b03841615611154576001600160a01b0384166000908152600360205260408120805483929061114e908490611b64565b90915550505b6001600160a01b03831615610aa7576001600160a01b0383166000908152600360205260408120805483929061118b908490611a8b565b909155505050505050565b6109578282604051806020016040528060008152506113cb565b6060604051806080016040528060598152602001611ce060599139905090565b6000828152600260205260409020546001600160a01b031661124b5760405162461bcd60e51b815260206004820152602e60248201527f45524337323155524953746f726167653a2055524920736574206f66206e6f6e60448201526d32bc34b9ba32b73a103a37b5b2b760911b60648201526084016105ca565b600082815260066020526040902061066b8282611bc5565b60006001600160a01b0384163b1561135957604051630a85bd0160e11b81526001600160a01b0385169063150b7a02906112a7903390899088908890600401611c85565b6020604051808303816000875af19250505080156112e2575060408051601f3d908101601f191682019092526112df91810190611cc2565b60015b61133f573d808015611310576040519150601f19603f3d011682016040523d82523d6000602084013e611315565b606091505b5080516000036113375760405162461bcd60e51b81526004016105ca90611ae3565b805181602001fd5b6001600160e01b031916630a85bd0160e11b149050610cb7565b506001949350505050565b606061136f82610b93565b60006113796111b0565b9050600081511161139957604051806020016040528060008152506113c4565b806113a3846113fe565b6040516020016113b4929190611b35565b6040516020818303038152906040525b9392505050565b6113d58383611491565b6113e26000848484611263565b61066b5760405162461bcd60e51b81526004016105ca90611ae3565b6060600061140b8361162a565b600101905060008167ffffffffffffffff81111561142b5761142b611893565b6040519080825280601f01601f191660200182016040528015611455576020820181803683370190505b5090508181016020015b600019016f181899199a1a9b1b9c1cb0b131b232b360811b600a86061a8153600a850494508461145f57509392505050565b6001600160a01b0382166114e75760405162461bcd60e51b815260206004820181905260248201527f4552433732313a206d696e7420746f20746865207a65726f206164647265737360448201526064016105ca565b6000818152600260205260409020546001600160a01b03161561154c5760405162461bcd60e51b815260206004820152601c60248201527f4552433732313a20746f6b656e20616c7265616479206d696e7465640000000060448201526064016105ca565b61155a60008383600161110e565b6000818152600260205260409020546001600160a01b0316156115bf5760405162461bcd60e51b815260206004820152601c60248201527f4552433732313a20746f6b656e20616c7265616479206d696e7465640000000060448201526064016105ca565b6001600160a01b038216600081815260036020908152604080832080546001019055848352600290915280822080546001600160a01b0319168417905551839291907fddf252ad1be2c89b69c2b068fc378daa952ba7f163c4a11628f55a4df523b3ef908290a45050565b60008072184f03e93ff9f4daa797ed6e38ed64bf6a1f0160401b83106116695772184f03e93ff9f4daa797ed6e38ed64bf6a1f0160401b830492506040015b6d04ee2d6d415b85acef81000000008310611695576d04ee2d6d415b85acef8100000000830492506020015b662386f26fc1000083106116b357662386f26fc10000830492506010015b6305f5e10083106116cb576305f5e100830492506008015b61271083106116df57612710830492506004015b606483106116f1576064830492506002015b600a83106104975760010192915050565b6001600160e01b031981168114610a5857600080fd5b60006020828403121561172a57600080fd5b81356113c481611702565b60005b83811015611750578181015183820152602001611738565b50506000910152565b60008151808452611771816020860160208601611735565b601f01601f19169290920160200192915050565b6020815260006113c46020830184611759565b6000602082840312156117aa57600080fd5b5035919050565b80356001600160a01b03811681146117c857600080fd5b919050565b600080604083850312156117e057600080fd5b6117e9836117b1565b946020939093013593505050565b60008060006060848603121561180c57600080fd5b611815846117b1565b9250611823602085016117b1565b9150604084013590509250925092565b60006020828403121561184557600080fd5b6113c4826117b1565b8015158114610a5857600080fd5b6000806040838503121561186f57600080fd5b611878836117b1565b915060208301356118888161184e565b809150509250929050565b634e487b7160e01b600052604160045260246000fd5b600080600080608085870312156118bf57600080fd5b6118c8856117b1565b93506118d6602086016117b1565b925060408501359150606085013567ffffffffffffffff808211156118fa57600080fd5b818701915087601f83011261190e57600080fd5b81358181111561192057611920611893565b604051601f8201601f19908116603f0116810190838211818310171561194857611948611893565b816040528281528a602084870101111561196157600080fd5b82602086016020830137600060208483010152809550505050505092959194509250565b6000806040838503121561199857600080fd5b6119a1836117b1565b91506119af602084016117b1565b90509250929050565b600181811c908216806119cc57607f821691505b6020821081036119ec57634e487b7160e01b600052602260045260246000fd5b50919050565b6020808252602d908201527f4552433732313a2063616c6c6572206973206e6f7420746f6b656e206f776e6560408201526c1c881bdc88185c1c1c9bdd9959609a1b606082015260800190565b600060208284031215611a5157600080fd5b5051919050565b600060208284031215611a6a57600080fd5b81516113c48161184e565b634e487b7160e01b600052601160045260246000fd5b8082018082111561049757610497611a75565b60208082526025908201527f4552433732313a207472616e736665722066726f6d20696e636f72726563742060408201526437bbb732b960d91b606082015260800190565b60208082526032908201527f4552433732313a207472616e7366657220746f206e6f6e20455243373231526560408201527131b2b4bb32b91034b6b83632b6b2b73a32b960711b606082015260800190565b60008351611b47818460208801611735565b835190830190611b5b818360208801611735565b01949350505050565b8181038181111561049757610497611a75565b601f82111561066b57600081815260208120601f850160051c81016020861015611b9e5750805b601f850160051c820191505b81811015611bbd57828155600101611baa565b505050505050565b815167ffffffffffffffff811115611bdf57611bdf611893565b611bf381611bed84546119b8565b84611b77565b602080601f831160018114611c285760008415611c105750858301515b600019600386901b1c1916600185901b178555611bbd565b600085815260208120601f198616915b82811015611c5757888601518255948401946001909101908401611c38565b5085821015611c755787850151600019600388901b60f8161c191681555b5050505050600190811b01905550565b6001600160a01b0385811682528416602082015260408101839052608060608201819052600090611cb890830184611759565b9695505050505050565b600060208284031215611cd457600080fd5b81516113c48161170256fe68747470733a2f2f6261666b72656967767a66736c6d733437347968376b6d6d727976753667636c636932356879337576376d636669626675377a667334376a6232792e697066732e6e667473746f726167652e6c696e6b2fa2646970667358221220a971e7ec9220e9f99b95ab45b42813a59ef1be7aa3e317e0b30d2f53b2895f5764736f6c634300081100333c73766720786d6c6e733d27687474703a2f2f7777772e77332e6f72672f323030302f73766727207072657365727665417370656374526174696f3d27784d696e594d696e206d656574272076696577426f783d273020302033353020333530273e3c726563742077696474683d273130302527206865696768743d2735303025272066696c6c3d2767726179272f3e3c7465787420783d273530252720793d273530252720646f6d696e616e742d626173656c696e653d276d6964646c652720746578742d616e63686f723d276d6964646c6527207374796c653d2766696c6c3a236666663b666f6e742d66616d696c793a73657269663b666f6e742d73697a653a31347078273e5348414e4520566f6c63616e6f204e46543c2f746578743e3c2f7376673e",
    "linkReferences": {}
  },
  "methodIdentifiers": {
    "approve(address,uint256)": "095ea7b3",
    "balanceOf(address)": "70a08231",
    "etherPrice()": "9e307955",
    "getApproved(uint256)": "081812fc",
    "isApprovedForAll(address,address)": "e985e9c5",
    "mintWithEther(address)": "8f6ede1f",
    "mintWithShaneCoin(address,uint256)": "6ddba536",
    "name()": "06fdde03",
    "owner()": "8da5cb5b",
    "ownerOf(uint256)": "6352211e",
    "renounceOwnership()": "715018a6",
    "safeTransferFrom(address,address,uint256)": "42842e0e",
    "safeTransferFrom(address,address,uint256,bytes)": "b88d4fde",
    "setApprovalForAll(address,bool)": "a22cb465",
    "setEtherPrice(uint256)": "27187991",
    "setShaneCoinAddress(address)": "de6681ff",
    "setShaneCoinPrice(uint256)": "e9c15519",
    "shaneCoinAmount()": "62c2ed7f",
    "supportsInterface(bytes4)": "01ffc9a7",
    "symbol()": "95d89b41",
    "tokenURI(uint256)": "c87b56dd",
    "totalSupply()": "18160ddd",
    "transferFrom(address,address,uint256)": "23b872dd",
    "transferOwnership(address)": "f2fde38b"
  },
  "id": 31
}