{
  "abi": [
    {
      "inputs": [],
      "stateMutability": "nonpayable",
      "type": "constructor"
    },
    {
      "anonymous": false,
      "inputs": [
        {
          "indexed": true,
          "internalType": "address",
          "name": "owner",
          "type": "address"
        },
        {
          "indexed": true,
          "internalType": "address",
          "name": "approved",
          "type": "address"
        },
        {
          "indexed": true,
          "internalType": "uint256",
          "name": "tokenId",
          "type": "uint256"
        }
      ],
      "name": "Approval",
      "type": "event"
    },
    {
      "anonymous": false,
      "inputs": [
        {
          "indexed": true,
          "internalType": "address",
          "name": "owner",
          "type": "address"
        },
        {
          "indexed": true,
          "internalType": "address",
          "name": "operator",
          "type": "address"
        },
        {
          "indexed": false,
          "internalType": "bool",
          "name": "approved",
          "type": "bool"
        }
      ],
      "name": "ApprovalForAll",
      "type": "event"
    },
    {
      "anonymous": false,
      "inputs": [
        {
          "indexed": true,
          "internalType": "address",
          "name": "from",
          "type": "address"
        },
        {
          "indexed": true,
          "internalType": "address",
          "name": "to",
          "type": "address"
        },
        {
          "indexed": true,
          "internalType": "uint256",
          "name": "tokenId",
          "type": "uint256"
        }
      ],
      "name": "Transfer",
      "type": "event"
    },
    {
      "inputs": [
        {
          "internalType": "address",
          "name": "to",
          "type": "address"
        },
        {
          "internalType": "uint256",
          "name": "tokenId",
          "type": "uint256"
        }
      ],
      "name": "approve",
      "outputs": [],
      "stateMutability": "nonpayable",
      "type": "function"
    },
    {
      "inputs": [
        {
          "internalType": "address",
          "name": "owner",
          "type": "address"
        }
      ],
      "name": "balanceOf",
      "outputs": [
        {
          "internalType": "uint256",
          "name": "",
          "type": "uint256"
        }
      ],
      "stateMutability": "view",
      "type": "function"
    },
    {
      "inputs": [
        {
          "internalType": "uint256",
          "name": "tokenId",
          "type": "uint256"
        }
      ],
      "name": "getApproved",
      "outputs": [
        {
          "internalType": "address",
          "name": "",
          "type": "address"
        }
      ],
      "stateMutability": "view",
      "type": "function"
    },
    {
      "inputs": [
        {
          "internalType": "address",
          "name": "owner",
          "type": "address"
        },
        {
          "internalType": "address",
          "name": "operator",
          "type": "address"
        }
      ],
      "name": "isApprovedForAll",
      "outputs": [
        {
          "internalType": "bool",
          "name": "",
          "type": "bool"
        }
      ],
      "stateMutability": "view",
      "type": "function"
    },
    {
      "inputs": [],
      "name": "mint",
      "outputs": [],
      "stateMutability": "nonpayable",
      "type": "function"
    },
    {
      "inputs": [],
      "name": "name",
      "outputs": [
        {
          "internalType": "string",
          "name": "",
          "type": "string"
        }
      ],
      "stateMutability": "view",
      "type": "function"
    },
    {
      "inputs": [
        {
          "internalType": "uint256",
          "name": "tokenId",
          "type": "uint256"
        }
      ],
      "name": "ownerOf",
      "outputs": [
        {
          "internalType": "address",
          "name": "",
          "type": "address"
        }
      ],
      "stateMutability": "view",
      "type": "function"
    },
    {
      "inputs": [
        {
          "internalType": "address",
          "name": "from",
          "type": "address"
        },
        {
          "internalType": "address",
          "name": "to",
          "type": "address"
        },
        {
          "internalType": "uint256",
          "name": "tokenId",
          "type": "uint256"
        }
      ],
      "name": "safeTransferFrom",
      "outputs": [],
      "stateMutability": "nonpayable",
      "type": "function"
    },
    {
      "inputs": [
        {
          "internalType": "address",
          "name": "from",
          "type": "address"
        },
        {
          "internalType": "address",
          "name": "to",
          "type": "address"
        },
        {
          "internalType": "uint256",
          "name": "tokenId",
          "type": "uint256"
        },
        {
          "internalType": "bytes",
          "name": "data",
          "type": "bytes"
        }
      ],
      "name": "safeTransferFrom",
      "outputs": [],
      "stateMutability": "nonpayable",
      "type": "function"
    },
    {
      "inputs": [
        {
          "internalType": "address",
          "name": "operator",
          "type": "address"
        },
        {
          "internalType": "bool",
          "name": "approved",
          "type": "bool"
        }
      ],
      "name": "setApprovalForAll",
      "outputs": [],
      "stateMutability": "nonpayable",
      "type": "function"
    },
    {
      "inputs": [
        {
          "internalType": "bytes4",
          "name": "interfaceId",
          "type": "bytes4"
        }
      ],
      "name": "supportsInterface",
      "outputs": [
        {
          "internalType": "bool",
          "name": "",
          "type": "bool"
        }
      ],
      "stateMutability": "view",
      "type": "function"
    },
    {
      "inputs": [],
      "name": "symbol",
      "outputs": [
        {
          "internalType": "string",
          "name": "",
          "type": "string"
        }
      ],
      "stateMutability": "view",
      "type": "function"
    },
    {
      "inputs": [
        {
          "internalType": "uint256",
          "name": "tokenId",
          "type": "uint256"
        }
      ],
      "name": "tokenURI",
      "outputs": [
        {
          "internalType": "string",
          "name": "",
          "type": "string"
        }
      ],
      "stateMutability": "view",
      "type": "function"
    },
    {
      "inputs": [
        {
          "internalType": "address",
          "name": "from",
          "type": "address"
        },
        {
          "internalType": "address",
          "name": "to",
          "type": "address"
        },
        {
          "internalType": "uint256",
          "name": "tokenId",
          "type": "uint256"
        }
      ],
      "name": "transferFrom",
      "outputs": [],
      "stateMutability": "nonpayable",
      "type": "function"
    }
  ],
  "bytecode": {
    "object": "0x6101e06040526101276080818152906200192160a03960089062000024908262000143565b503480156200003257600080fd5b506040518060400160405280600c81526020016b14da185b9958d85b9bd3919560a21b8152506040518060400160405280600481526020016353434e4f60e01b815250816000908162000086919062000143565b50600162000095828262000143565b5050506200020f565b634e487b7160e01b600052604160045260246000fd5b600181811c90821680620000c957607f821691505b602082108103620000ea57634e487b7160e01b600052602260045260246000fd5b50919050565b601f8211156200013e57600081815260208120601f850160051c81016020861015620001195750805b601f850160051c820191505b818110156200013a5782815560010162000125565b5050505b505050565b81516001600160401b038111156200015f576200015f6200009e565b6200017781620001708454620000b4565b84620000f0565b602080601f831160018114620001af5760008415620001965750858301515b600019600386901b1c1916600185901b1785556200013a565b600085815260208120601f198616915b82811015620001e057888601518255948401946001909101908401620001bf565b5085821015620001ff5787850151600019600388901b60f8161c191681555b5050505050600190811b01905550565b611702806200021f6000396000f3fe608060405234801561001057600080fd5b50600436106100ea5760003560e01c80636352211e1161008c578063a22cb46511610066578063a22cb465146101d6578063b88d4fde146101e9578063c87b56dd146101fc578063e985e9c51461020f57600080fd5b80636352211e1461019a57806370a08231146101ad57806395d89b41146101ce57600080fd5b8063095ea7b3116100c8578063095ea7b3146101575780631249c58b1461016c57806323b872dd1461017457806342842e0e1461018757600080fd5b806301ffc9a7146100ef57806306fdde0314610117578063081812fc1461012c575b600080fd5b6101026100fd3660046110eb565b610222565b60405190151581526020015b60405180910390f35b61011f610274565b60405161010e9190611158565b61013f61013a36600461116b565b610306565b6040516001600160a01b03909116815260200161010e565b61016a6101653660046111a0565b61032d565b005b61016a610447565b61016a6101823660046111ca565b610491565b61016a6101953660046111ca565b6104c2565b61013f6101a836600461116b565b6104dd565b6101c06101bb366004611206565b61053d565b60405190815260200161010e565b61011f6105c3565b61016a6101e4366004611221565b6105d2565b61016a6101f7366004611273565b6105e1565b61011f61020a36600461116b565b610619565b61010261021d36600461134f565b610729565b60006001600160e01b031982166380ac58cd60e01b148061025357506001600160e01b03198216635b5e139f60e01b145b8061026e57506301ffc9a760e01b6001600160e01b03198316145b92915050565b60606000805461028390611382565b80601f01602080910402602001604051908101604052809291908181526020018280546102af90611382565b80156102fc5780601f106102d1576101008083540402835291602001916102fc565b820191906000526020600020905b8154815290600101906020018083116102df57829003601f168201915b5050505050905090565b600061031182610757565b506000908152600460205260409020546001600160a01b031690565b6000610338826104dd565b9050806001600160a01b0316836001600160a01b0316036103aa5760405162461bcd60e51b815260206004820152602160248201527f4552433732313a20617070726f76616c20746f2063757272656e74206f776e656044820152603960f91b60648201526084015b60405180910390fd5b336001600160a01b03821614806103c657506103c68133610729565b6104385760405162461bcd60e51b815260206004820152603d60248201527f4552433732313a20617070726f76652063616c6c6572206973206e6f7420746f60448201527f6b656e206f776e6572206f7220617070726f76656420666f7220616c6c00000060648201526084016103a1565b61044283836107b6565b505050565b600061045260075490565b905061045e3382610824565b610480816040518060800160405280605981526020016116746059913961083e565b61048e600780546001019055565b50565b61049b33826108d1565b6104b75760405162461bcd60e51b81526004016103a1906113bc565b61044283838361092f565b610442838383604051806020016040528060008152506105e1565b6000818152600260205260408120546001600160a01b03168061026e5760405162461bcd60e51b8152602060048201526018602482015277115490cdcc8c4e881a5b9d985b1a59081d1bdad95b88125160421b60448201526064016103a1565b60006001600160a01b0382166105a75760405162461bcd60e51b815260206004820152602960248201527f4552433732313a2061646472657373207a65726f206973206e6f7420612076616044820152683634b21037bbb732b960b91b60648201526084016103a1565b506001600160a01b031660009081526003602052604090205490565b60606001805461028390611382565b6105dd338383610aa0565b5050565b6105eb33836108d1565b6106075760405162461bcd60e51b81526004016103a1906113bc565b61061384848484610b6e565b50505050565b606061062482610757565b6000828152600660205260408120805461063d90611382565b80601f016020809104026020016040519081016040528092919081815260200182805461066990611382565b80156106b65780601f1061068b576101008083540402835291602001916106b6565b820191906000526020600020905b81548152906001019060200180831161069957829003601f168201915b5050505050905060006106d460408051602081019091526000815290565b905080516000036106e6575092915050565b815115610718578082604051602001610700929190611409565b60405160208183030381529060405292505050919050565b61072184610ba1565b949350505050565b6001600160a01b03918216600090815260056020908152604080832093909416825291909152205460ff1690565b6000818152600260205260409020546001600160a01b031661048e5760405162461bcd60e51b8152602060048201526018602482015277115490cdcc8c4e881a5b9d985b1a59081d1bdad95b88125160421b60448201526064016103a1565b600081815260046020526040902080546001600160a01b0319166001600160a01b03841690811790915581906107eb826104dd565b6001600160a01b03167f8c5be1e5ebec7d5bd14f71427d1e84f3dd0314c0f7b2291e5b200ac8c7c3b92560405160405180910390a45050565b6105dd828260405180602001604052806000815250610c15565b6000828152600260205260409020546001600160a01b03166108b95760405162461bcd60e51b815260206004820152602e60248201527f45524337323155524953746f726167653a2055524920736574206f66206e6f6e60448201526d32bc34b9ba32b73a103a37b5b2b760911b60648201526084016103a1565b60008281526006602052604090206104428282611486565b6000806108dd836104dd565b9050806001600160a01b0316846001600160a01b0316148061090457506109048185610729565b806107215750836001600160a01b031661091d84610306565b6001600160a01b031614949350505050565b826001600160a01b0316610942826104dd565b6001600160a01b0316146109685760405162461bcd60e51b81526004016103a190611546565b6001600160a01b0382166109ca5760405162461bcd60e51b8152602060048201526024808201527f4552433732313a207472616e7366657220746f20746865207a65726f206164646044820152637265737360e01b60648201526084016103a1565b6109d78383836001610c48565b826001600160a01b03166109ea826104dd565b6001600160a01b031614610a105760405162461bcd60e51b81526004016103a190611546565b600081815260046020908152604080832080546001600160a01b03199081169091556001600160a01b0387811680865260038552838620805460001901905590871680865283862080546001019055868652600290945282852080549092168417909155905184937fddf252ad1be2c89b69c2b068fc378daa952ba7f163c4a11628f55a4df523b3ef91a4505050565b816001600160a01b0316836001600160a01b031603610b015760405162461bcd60e51b815260206004820152601960248201527f4552433732313a20617070726f766520746f2063616c6c65720000000000000060448201526064016103a1565b6001600160a01b03838116600081815260056020908152604080832094871680845294825291829020805460ff191686151590811790915591519182527f17307eab39ab6107e8899845ad3d59bd9653f200f220920489ca2b5937696c31910160405180910390a3505050565b610b7984848461092f565b610b8584848484610cd0565b6106135760405162461bcd60e51b81526004016103a19061158b565b6060610bac82610757565b6000610bc360408051602081019091526000815290565b90506000815111610be35760405180602001604052806000815250610c0e565b80610bed84610dd1565b604051602001610bfe929190611409565b6040516020818303038152906040525b9392505050565b610c1f8383610e64565b610c2c6000848484610cd0565b6104425760405162461bcd60e51b81526004016103a19061158b565b6001811115610613576001600160a01b03841615610c8e576001600160a01b03841660009081526003602052604081208054839290610c889084906115f3565b90915550505b6001600160a01b03831615610613576001600160a01b03831660009081526003602052604081208054839290610cc5908490611606565b909155505050505050565b60006001600160a01b0384163b15610dc657604051630a85bd0160e11b81526001600160a01b0385169063150b7a0290610d14903390899088908890600401611619565b6020604051808303816000875af1925050508015610d4f575060408051601f3d908101601f19168201909252610d4c91810190611656565b60015b610dac573d808015610d7d576040519150601f19603f3d011682016040523d82523d6000602084013e610d82565b606091505b508051600003610da45760405162461bcd60e51b81526004016103a19061158b565b805181602001fd5b6001600160e01b031916630a85bd0160e11b149050610721565b506001949350505050565b60606000610dde83610ffd565b600101905060008167ffffffffffffffff811115610dfe57610dfe61125d565b6040519080825280601f01601f191660200182016040528015610e28576020820181803683370190505b5090508181016020015b600019016f181899199a1a9b1b9c1cb0b131b232b360811b600a86061a8153600a8504945084610e3257509392505050565b6001600160a01b038216610eba5760405162461bcd60e51b815260206004820181905260248201527f4552433732313a206d696e7420746f20746865207a65726f206164647265737360448201526064016103a1565b6000818152600260205260409020546001600160a01b031615610f1f5760405162461bcd60e51b815260206004820152601c60248201527f4552433732313a20746f6b656e20616c7265616479206d696e7465640000000060448201526064016103a1565b610f2d600083836001610c48565b6000818152600260205260409020546001600160a01b031615610f925760405162461bcd60e51b815260206004820152601c60248201527f4552433732313a20746f6b656e20616c7265616479206d696e7465640000000060448201526064016103a1565b6001600160a01b038216600081815260036020908152604080832080546001019055848352600290915280822080546001600160a01b0319168417905551839291907fddf252ad1be2c89b69c2b068fc378daa952ba7f163c4a11628f55a4df523b3ef908290a45050565b60008072184f03e93ff9f4daa797ed6e38ed64bf6a1f0160401b831061103c5772184f03e93ff9f4daa797ed6e38ed64bf6a1f0160401b830492506040015b6d04ee2d6d415b85acef81000000008310611068576d04ee2d6d415b85acef8100000000830492506020015b662386f26fc10000831061108657662386f26fc10000830492506010015b6305f5e100831061109e576305f5e100830492506008015b61271083106110b257612710830492506004015b606483106110c4576064830492506002015b600a831061026e5760010192915050565b6001600160e01b03198116811461048e57600080fd5b6000602082840312156110fd57600080fd5b8135610c0e816110d5565b60005b8381101561112357818101518382015260200161110b565b50506000910152565b60008151808452611144816020860160208601611108565b601f01601f19169290920160200192915050565b602081526000610c0e602083018461112c565b60006020828403121561117d57600080fd5b5035919050565b80356001600160a01b038116811461119b57600080fd5b919050565b600080604083850312156111b357600080fd5b6111bc83611184565b946020939093013593505050565b6000806000606084860312156111df57600080fd5b6111e884611184565b92506111f660208501611184565b9150604084013590509250925092565b60006020828403121561121857600080fd5b610c0e82611184565b6000806040838503121561123457600080fd5b61123d83611184565b91506020830135801515811461125257600080fd5b809150509250929050565b634e487b7160e01b600052604160045260246000fd5b6000806000806080858703121561128957600080fd5b61129285611184565b93506112a060208601611184565b925060408501359150606085013567ffffffffffffffff808211156112c457600080fd5b818701915087601f8301126112d857600080fd5b8135818111156112ea576112ea61125d565b604051601f8201601f19908116603f011681019083821181831017156113125761131261125d565b816040528281528a602084870101111561132b57600080fd5b82602086016020830137600060208483010152809550505050505092959194509250565b6000806040838503121561136257600080fd5b61136b83611184565b915061137960208401611184565b90509250929050565b600181811c9082168061139657607f821691505b6020821081036113b657634e487b7160e01b600052602260045260246000fd5b50919050565b6020808252602d908201527f4552433732313a2063616c6c6572206973206e6f7420746f6b656e206f776e6560408201526c1c881bdc88185c1c1c9bdd9959609a1b606082015260800190565b6000835161141b818460208801611108565b83519083019061142f818360208801611108565b01949350505050565b601f82111561044257600081815260208120601f850160051c8101602086101561145f5750805b601f850160051c820191505b8181101561147e5782815560010161146b565b505050505050565b815167ffffffffffffffff8111156114a0576114a061125d565b6114b4816114ae8454611382565b84611438565b602080601f8311600181146114e957600084156114d15750858301515b600019600386901b1c1916600185901b17855561147e565b600085815260208120601f198616915b82811015611518578886015182559484019460019091019084016114f9565b50858210156115365787850151600019600388901b60f8161c191681555b5050505050600190811b01905550565b60208082526025908201527f4552433732313a207472616e736665722066726f6d20696e636f72726563742060408201526437bbb732b960d91b606082015260800190565b60208082526032908201527f4552433732313a207472616e7366657220746f206e6f6e20455243373231526560408201527131b2b4bb32b91034b6b83632b6b2b73a32b960711b606082015260800190565b634e487b7160e01b600052601160045260246000fd5b8181038181111561026e5761026e6115dd565b8082018082111561026e5761026e6115dd565b6001600160a01b038581168252841660208201526040810183905260806060820181905260009061164c9083018461112c565b9695505050505050565b60006020828403121561166857600080fd5b8151610c0e816110d556fe68747470733a2f2f6261666b72656967767a66736c6d733437347968376b6d6d727976753667636c636932356879337576376d636669626675377a667334376a6232792e697066732e6e667473746f726167652e6c696e6b2fa26469706673582212203e813eeebb6b6b5c66dd3d1d4a27e78c421cb347bb74a82e07c798334d3048bc64736f6c634300081100333c73766720786d6c6e733d27687474703a2f2f7777772e77332e6f72672f323030302f73766727207072657365727665417370656374526174696f3d27784d696e594d696e206d656574272076696577426f783d273020302033353020333530273e3c726563742077696474683d273130302527206865696768743d2735303025272066696c6c3d2767726179272f3e3c7465787420783d273530252720793d273530252720646f6d696e616e742d626173656c696e653d276d6964646c652720746578742d616e63686f723d276d6964646c6527207374796c653d2766696c6c3a236666663b666f6e742d66616d696c793a73657269663b666f6e742d73697a653a31347078273e5348414e4520566f6c63616e6f204e46543c2f746578743e3c2f7376673e",
    "linkReferences": {}
  },
  "methodIdentifiers": {
    "approve(address,uint256)": "095ea7b3",
    "balanceOf(address)": "70a08231",
    "getApproved(uint256)": "081812fc",
    "isApprovedForAll(address,address)": "e985e9c5",
    "mint()": "1249c58b",
    "name()": "06fdde03",
    "ownerOf(uint256)": "6352211e",
    "safeTransferFrom(address,address,uint256)": "42842e0e",
    "safeTransferFrom(address,address,uint256,bytes)": "b88d4fde",
    "setApprovalForAll(address,bool)": "a22cb465",
    "supportsInterface(bytes4)": "01ffc9a7",
    "symbol()": "95d89b41",
    "tokenURI(uint256)": "c87b56dd",
    "transferFrom(address,address,uint256)": "23b872dd"
  },
  "id": 30
}